:020000020000FC
:02000000FFC03F
:100200000FEF0AB904B911E021E010C010E01BB9EA
:1002100002E025B90000201711F0220FF7CF01E00E
:10022000269525B90000201741F0F9CF00E8110FFD
:100230001BB90000101751F3F9CF20E025B901E0F8
:100240001BB916950000101789F3F7CF1BB925B914
:1002500000001395101709F0D8CF23950000D5CFD3
:1002600043E55BEF6FEF6A95F1F75A95D9F74A9539
:10027000C1F742E04A95F1F70000089549E05EE1D8
:1002800065EE6A95F1F75A95E1F74A95D1F7089529
:0E02900040ED5AEC5A95F1F74A95E1F70895C2
:00000001FF
