:020000020000FC
:1000000040C007B10F7C07B900E308B90091B900FF
:100010000C7F0093B9000CE00093B80005E000935A
:10002000BC00089504EA0093BC000091BC0007FFE7
:10003000FCCF0091B900087F0830089504E90093CF
:10004000BC0008951093BB0004E80093BC0000912D
:10005000BC0007FFFCCF0091B900087F083108956C
:100060001093BB0004E80093BC000091BC0007FFA4
:10007000FCCF0091B900087F0832089501E00BB968
:10008000FFCF50E0BEDFCEDF10EEDCDF11E2E8DFB5
:100090005395C8DF10EED6DF10EAE2DF5395C2DFDA
:1000A00010EED0DF1FEEDCDF5395BCDF10EECADFB1
:1000B00011E8D6DF5395E6EEF0E035914591B2DFD9
:1000C00010EEC0DF152FCCDF132FCADF5395142F8E
:1000D000C7DF5395B3DF583081F701D0EECF50E042
:1000E000E6EEF0E00895F320011271003605FF7F7F
:1000F000FF7FFF7FFF7FF320F900F7000F12000062
:100100000112F600F900714000123621BD00000016
:0E0110003605F70036213E00F70038000000EB
:00000001FF
