:020000020000FC
:1000000040C007B10F7C07B900E308B90091B900FF
:100010000C7F0093B9000CE00093B80005E000935A
:10002000BC00089504EA0093BC000091BC0007FFE7
:10003000FCCF0091B900087F0830089504E90093CF
:10004000BC0008951093BB0004E80093BC0000912D
:10005000BC0007FFFCCF0091B900087F083108956C
:100060001093BB0004E80093BC000091BC0007FFA4
:10007000FCCF0091B900087F0832089501E00BB968
:10008000FFCF80E090E0BDDFCDDF10EEDBDF11E2DF
:10009000E7DF8395C7DF10EED5DF10EAE1DF839558
:1000A000C1DF10EECFDF1FEEDBDF8395BBDF10EE8D
:1000B000C9DF11E8D5DF8395E4E3F1E0359175916F
:1000C000B1DF10EEBFDF182FCBDF132FC9DF839511
:1000D000172FC6DF8395B2DF883081F7939503D061
:1000E00011D044D0EBCF913079F0923081F0933041
:1000F00089F0943091F0953099F09630A1F09730D6
:10010000A9F0089580E00895E4E3F1E0FACFE4E493
:10011000F1E0F7CFECE4F1E0F4CFE4E5F1E0F1CF8A
:10012000ECE5F1E0EECFE4E6F1E0EBCFECE3F1E07B
:1001300090E0E7CFF320011271003605FF7FFF7FCB
:10014000FF7FFF7FF320F900F7000F12000001127C
:10015000F600F900714000123621BD00000036059E
:10016000F70036213E00F7003800000043E55BEF62
:100170006FEF6A95F1F75A95D9F74A95C1F742E0C2
:080180004A95F1F70000089513
:00000001FF
