:020000020000FC
:1000000040C007B10F7C07B900E308B90091B900FF
:100010000C7F0093B9000CE00093B80005E000935A
:10002000BC00089504EA0093BC000091BC0007FFE7
:10003000FCCF0091B900087F0830089504E90093CF
:10004000BC0008951093BB0004E80093BC0000912D
:10005000BC0007FFFCCF0091B900087F083108956C
:100060001093BB0004E80093BC000091BC0007FFA4
:10007000FCCF0091B900087F0832089501E00BB968
:10008000FFCF31E0BEDFCEDF10EEDCDF11E2E8DFD4
:10009000D5DFC8DF10EED6DF10EAE2DFCFDFC2DF48
:1000A00010EED0DF1FEEDCDFC9DFBCDF10EECADFF1
:1000B00011E8D6DFC3DFB6DF10EEC4DF10E0D0DF1B
:0A00C00010E0CEDFBBDF330FF6CFF8
:00000001FF
