:020000020000FC
:1000000040C007B10F7C07B900E308B90091B900FF
:100010000C7F0093B9000CE00093B80005E000935A
:10002000BC00089504EA0093BC000091BC0007FFE7
:10003000FCCF0091B900087F0830089504E90093CF
:10004000BC0008951093BB0004E80093BC0000912D
:10005000BC0007FFFCCF0091B900087F083108956C
:100060001093BB0004E80093BC000091BC0007FFA4
:10007000FCCF0091B900087F0832089501E00BB968
:10008000FFCF80E090E0BDDFCDDF10EEDBDF11E2DF
:10009000E7DF8395C7DF10EED5DF10EAE1DF839558
:1000A000C1DF10EECFDF1FEEDBDF8395BBDF10EE8D
:1000B000C9DF11E8D5DF8395EAE2F1E0359175916A
:1000C000B1DF10EEBFDF182FCBDF132FC9DF839511
:1000D000172FC6DF8395B2DF883081F7939503D061
:1000E0000FD03FD0EBCF913069F0923071F0933068
:1000F00079F0943081F0953089F0963091F0089540
:1001000080E00895EAE2F1E0FACFEAE3F1E0F7CF28
:10011000E2E4F1E0F4CFEAE4F1E0F1CFE2E5F1E08E
:10012000EECFEAE5F1E090E0EACFF32001127100B2
:100130003605FF7FFF7FFF7FFF7FF320F900F70089
:100140000F1200000112F600F90071400012362172
:10015000BD0000003605F70036213E00F7003800EC
:10016000000043E55BEF6FEF6A95F1F75A95D9F719
:0E0170004A95C1F742E04A95F1F70000089564
:00000001FF
